{
  "contractName": "Rural",
  "abi": [
    {
      "constant": true,
      "inputs": [],
      "name": "ownerStateId",
      "outputs": [
        {
          "name": "",
          "type": "string"
        }
      ],
      "payable": false,
      "stateMutability": "view",
      "type": "function"
    },
    {
      "constant": true,
      "inputs": [],
      "name": "ownerFirstName",
      "outputs": [
        {
          "name": "",
          "type": "string"
        }
      ],
      "payable": false,
      "stateMutability": "view",
      "type": "function"
    },
    {
      "constant": true,
      "inputs": [],
      "name": "ownerLastName",
      "outputs": [
        {
          "name": "",
          "type": "string"
        }
      ],
      "payable": false,
      "stateMutability": "view",
      "type": "function"
    },
    {
      "inputs": [],
      "payable": false,
      "stateMutability": "nonpayable",
      "type": "constructor"
    }
  ],
  "bytecode": "0x608060405234801561001057600080fd5b506040518060400160405280600981526020017f53656261737469656e00000000000000000000000000000000000000000000008152506000908051906020019061005c9291906100ae565b506040518060400160405280600481526020017f5961706f00000000000000000000000000000000000000000000000000000000815250600190805190602001906100a89291906100ae565b50610153565b828054600181600116156101000203166002900490600052602060002090601f016020900481019282601f106100ef57805160ff191683800117855561011d565b8280016001018555821561011d579182015b8281111561011c578251825591602001919060010190610101565b5b50905061012a919061012e565b5090565b61015091905b8082111561014c576000816000905550600101610134565b5090565b90565b6103d5806101626000396000f3fe608060405234801561001057600080fd5b50600436106100415760003560e01c80634953131a14610046578063a71a4b31146100c9578063f80316541461014c575b600080fd5b61004e6101cf565b6040518080602001828103825283818151815260200191508051906020019080838360005b8381101561008e578082015181840152602081019050610073565b50505050905090810190601f1680156100bb5780820380516001836020036101000a031916815260200191505b509250505060405180910390f35b6100d161026d565b6040518080602001828103825283818151815260200191508051906020019080838360005b838110156101115780820151818401526020810190506100f6565b50505050905090810190601f16801561013e5780820380516001836020036101000a031916815260200191505b509250505060405180910390f35b61015461030b565b6040518080602001828103825283818151815260200191508051906020019080838360005b83811015610194578082015181840152602081019050610179565b50505050905090810190601f1680156101c15780820380516001836020036101000a031916815260200191505b509250505060405180910390f35b60028054600181600116156101000203166002900480601f0160208091040260200160405190810160405280929190818152602001828054600181600116156101000203166002900480156102655780601f1061023a57610100808354040283529160200191610265565b820191906000526020600020905b81548152906001019060200180831161024857829003601f168201915b505050505081565b60008054600181600116156101000203166002900480601f0160208091040260200160405190810160405280929190818152602001828054600181600116156101000203166002900480156103035780601f106102d857610100808354040283529160200191610303565b820191906000526020600020905b8154815290600101906020018083116102e657829003601f168201915b505050505081565b60018054600181600116156101000203166002900480601f0160208091040260200160405190810160405280929190818152602001828054600181600116156101000203166002900480156103a15780601f10610376576101008083540402835291602001916103a1565b820191906000526020600020905b81548152906001019060200180831161038457829003601f168201915b50505050508156fea165627a7a72305820c41e654ea6a3435fb96d850de6873c8b84c5aa7a585dec831bb0ca984b70c1400029",
  "source": "pragma solidity ^0.5.0;\n\ncontract Rural {\n\n    //Defining Variables\n    \n    string public ownerFirstName;\n    string public ownerLastName;\n    string public ownerStateId;\n\n    //Declare Constructor\n    constructor() public{\n\n        ownerFirstName = \"Sebastien\";\n        ownerLastName = \"Yapo\";\n\n    }\n}",
  "sourcePath": "/home/yankees/Projects/BLOCKCHAIN_LAND_REGISTRY/rural-blockchain/contracts/Rural.sol",
  "compiler": {
    "name": "solc",
    "version": "0.5.8+commit.23d335f2.Emscripten.clang"
  },
  "schemaVersion": "3.0.10",
  "updatedAt": "2019-06-05T19:38:18.493Z",
  "devdoc": {
    "methods": {}
  },
  "userdoc": {
    "methods": {}
  }
}