{
  "contractName": "RuralContract",
  "abi": [
    {
      "constant": true,
      "inputs": [
        {
          "name": "",
          "type": "uint256"
        }
      ],
      "name": "landTitles",
      "outputs": [
        {
          "name": "id",
          "type": "uint256"
        },
        {
          "name": "firstName",
          "type": "string"
        },
        {
          "name": "lastName",
          "type": "string"
        },
        {
          "name": "geoLatLand",
          "type": "int256"
        },
        {
          "name": "geoLongLand",
          "type": "int256"
        },
        {
          "name": "areaLand",
          "type": "uint256"
        },
        {
          "name": "city",
          "type": "string"
        },
        {
          "name": "villageName",
          "type": "string"
        }
      ],
      "payable": false,
      "stateMutability": "view",
      "type": "function"
    },
    {
      "constant": true,
      "inputs": [],
      "name": "nextId",
      "outputs": [
        {
          "name": "",
          "type": "uint256"
        }
      ],
      "payable": false,
      "stateMutability": "view",
      "type": "function"
    },
    {
      "inputs": [],
      "payable": false,
      "stateMutability": "nonpayable",
      "type": "constructor"
    },
    {
      "anonymous": false,
      "inputs": [
        {
          "indexed": false,
          "name": "id",
          "type": "uint256"
        },
        {
          "indexed": false,
          "name": "firstName",
          "type": "string"
        },
        {
          "indexed": false,
          "name": "lastName",
          "type": "string"
        },
        {
          "indexed": false,
          "name": "geoLatLand",
          "type": "int256"
        },
        {
          "indexed": false,
          "name": "geoLongLand",
          "type": "int256"
        },
        {
          "indexed": false,
          "name": "areaLand",
          "type": "uint256"
        },
        {
          "indexed": false,
          "name": "city",
          "type": "string"
        },
        {
          "indexed": false,
          "name": "villageName",
          "type": "string"
        }
      ],
      "name": "LandTitleRegistrationEvent",
      "type": "event"
    },
    {
      "anonymous": false,
      "inputs": [
        {
          "indexed": false,
          "name": "id",
          "type": "uint256"
        }
      ],
      "name": "DeleteLandTitleEvent",
      "type": "event"
    },
    {
      "anonymous": false,
      "inputs": [
        {
          "indexed": false,
          "name": "id",
          "type": "uint256"
        },
        {
          "indexed": false,
          "name": "firstName",
          "type": "string"
        },
        {
          "indexed": false,
          "name": "lastName",
          "type": "string"
        }
      ],
      "name": "UpdatedLandTitleOwnerEvent",
      "type": "event"
    },
    {
      "constant": false,
      "inputs": [
        {
          "name": "firstName",
          "type": "string"
        },
        {
          "name": "lastName",
          "type": "string"
        },
        {
          "name": "geoLatLand",
          "type": "int256"
        },
        {
          "name": "geoLongLand",
          "type": "int256"
        },
        {
          "name": "areaLand",
          "type": "uint256"
        },
        {
          "name": "city",
          "type": "string"
        },
        {
          "name": "villageName",
          "type": "string"
        }
      ],
      "name": "registerLandTitle",
      "outputs": [],
      "payable": false,
      "stateMutability": "nonpayable",
      "type": "function"
    },
    {
      "constant": false,
      "inputs": [
        {
          "name": "id",
          "type": "uint256"
        },
        {
          "name": "newFirstName",
          "type": "string"
        },
        {
          "name": "newLastName",
          "type": "string"
        }
      ],
      "name": "UpdatedLandTitleOwner",
      "outputs": [],
      "payable": false,
      "stateMutability": "nonpayable",
      "type": "function"
    },
    {
      "constant": false,
      "inputs": [
        {
          "name": "id",
          "type": "uint256"
        }
      ],
      "name": "DeleteLandTitle",
      "outputs": [],
      "payable": false,
      "stateMutability": "nonpayable",
      "type": "function"
    },
    {
      "constant": true,
      "inputs": [
        {
          "name": "id",
          "type": "uint256"
        }
      ],
      "name": "getLandTitle",
      "outputs": [
        {
          "name": "",
          "type": "uint256"
        },
        {
          "name": "",
          "type": "string"
        },
        {
          "name": "",
          "type": "string"
        },
        {
          "name": "",
          "type": "int256"
        },
        {
          "name": "",
          "type": "int256"
        },
        {
          "name": "",
          "type": "uint256"
        },
        {
          "name": "",
          "type": "string"
        },
        {
          "name": "",
          "type": "string"
        }
      ],
      "payable": false,
      "stateMutability": "view",
      "type": "function"
    },
    {
      "constant": true,
      "inputs": [],
      "name": "getAllOwners",
      "outputs": [
        {
          "name": "",
          "type": "uint256"
        },
        {
          "name": "",
          "type": "string"
        },
        {
          "name": "",
          "type": "string"
        },
        {
          "name": "",
          "type": "int256"
        },
        {
          "name": "",
          "type": "int256"
        },
        {
          "name": "",
          "type": "uint256"
        },
        {
          "name": "",
          "type": "string"
        },
        {
          "name": "",
          "type": "string"
        }
      ],
      "payable": false,
      "stateMutability": "view",
      "type": "function"
    }
  ],
  "bytecode": "0x60806040526001805534801561001457600080fd5b50611a85806100246000396000f3fe608060405234801561001057600080fd5b506004361061007d5760003560e01c806361b8ce8c1161005b57806361b8ce8c146105c857806374a47de8146105e6578063db70a49914610614578063f8839f87146108b25761007d565b80630b8d438c146100825780630e7f09a41461028957806316c12746146103e5575b600080fd5b6100ae6004803603602081101561009857600080fd5b8101908080359060200190929190505050610ab9565b604051808981526020018060200180602001888152602001878152602001868152602001806020018060200185810385528c818151815260200191508051906020019080838360005b838110156101125780820151818401526020810190506100f7565b50505050905090810190601f16801561013f5780820380516001836020036101000a031916815260200191505b5085810384528b818151815260200191508051906020019080838360005b8381101561017857808201518184015260208101905061015d565b50505050905090810190601f1680156101a55780820380516001836020036101000a031916815260200191505b50858103835287818151815260200191508051906020019080838360005b838110156101de5780820151818401526020810190506101c3565b50505050905090810190601f16801561020b5780820380516001836020036101000a031916815260200191505b50858103825286818151815260200191508051906020019080838360005b83811015610244578082015181840152602081019050610229565b50505050905090810190601f1680156102715780820380516001836020036101000a031916815260200191505b509c5050505050505050505050505060405180910390f35b6103e36004803603606081101561029f57600080fd5b8101908080359060200190929190803590602001906401000000008111156102c657600080fd5b8201836020820111156102d857600080fd5b803590602001918460018302840111640100000000831117156102fa57600080fd5b91908080601f016020809104026020016040519081016040528093929190818152602001838380828437600081840152601f19601f8201169050808301925050505050505091929192908035906020019064010000000081111561035d57600080fd5b82018360208201111561036f57600080fd5b8035906020019184600183028401116401000000008311171561039157600080fd5b91908080601f016020809104026020016040519081016040528093929190818152602001838380828437600081840152601f19601f820116905080830192505050505050509192919290505050610d6e565b005b6103ed610ef8565b604051808981526020018060200180602001888152602001878152602001868152602001806020018060200185810385528c818151815260200191508051906020019080838360005b83811015610451578082015181840152602081019050610436565b50505050905090810190601f16801561047e5780820380516001836020036101000a031916815260200191505b5085810384528b818151815260200191508051906020019080838360005b838110156104b757808201518184015260208101905061049c565b50505050905090810190601f1680156104e45780820380516001836020036101000a031916815260200191505b50858103835287818151815260200191508051906020019080838360005b8381101561051d578082015181840152602081019050610502565b50505050905090810190601f16801561054a5780820380516001836020036101000a031916815260200191505b50858103825286818151815260200191508051906020019080838360005b83811015610583578082015181840152602081019050610568565b50505050905090810190601f1680156105b05780820380516001836020036101000a031916815260200191505b509c5050505050505050505050505060405180910390f35b6105d061129e565b6040518082815260200191505060405180910390f35b610612600480360360208110156105fc57600080fd5b81019080803590602001909291905050506112a4565b005b6108b0600480360360e081101561062a57600080fd5b810190808035906020019064010000000081111561064757600080fd5b82018360208201111561065957600080fd5b8035906020019184600183028401116401000000008311171561067b57600080fd5b91908080601f016020809104026020016040519081016040528093929190818152602001838380828437600081840152601f19601f820116905080830192505050505050509192919290803590602001906401000000008111156106de57600080fd5b8201836020820111156106f057600080fd5b8035906020019184600183028401116401000000008311171561071257600080fd5b91908080601f016020809104026020016040519081016040528093929190818152602001838380828437600081840152601f19601f8201169050808301925050505050505091929192908035906020019092919080359060200190929190803590602001909291908035906020019064010000000081111561079357600080fd5b8201836020820111156107a557600080fd5b803590602001918460018302840111640100000000831117156107c757600080fd5b91908080601f016020809104026020016040519081016040528093929190818152602001838380828437600081840152601f19601f8201169050808301925050505050505091929192908035906020019064010000000081111561082a57600080fd5b82018360208201111561083c57600080fd5b8035906020019184600183028401116401000000008311171561085e57600080fd5b91908080601f016020809104026020016040519081016040528093929190818152602001838380828437600081840152601f19601f82011690508083019250505050505050919291929050505061136a565b005b6108de600480360360208110156108c857600080fd5b810190808035906020019092919050505061148d565b604051808981526020018060200180602001888152602001878152602001868152602001806020018060200185810385528c818151815260200191508051906020019080838360005b83811015610942578082015181840152602081019050610927565b50505050905090810190601f16801561096f5780820380516001836020036101000a031916815260200191505b5085810384528b818151815260200191508051906020019080838360005b838110156109a857808201518184015260208101905061098d565b50505050905090810190601f1680156109d55780820380516001836020036101000a031916815260200191505b50858103835287818151815260200191508051906020019080838360005b83811015610a0e5780820151818401526020810190506109f3565b50505050905090810190601f168015610a3b5780820380516001836020036101000a031916815260200191505b50858103825286818151815260200191508051906020019080838360005b83811015610a74578082015181840152602081019050610a59565b50505050905090810190601f168015610aa15780820380516001836020036101000a031916815260200191505b509c5050505050505050505050505060405180910390f35b60008181548110610ac657fe5b9060005260206000209060080201600091509050806000015490806001018054600181600116156101000203166002900480601f016020809104026020016040519081016040528092919081815260200182805460018160011615610100020316600290048015610b785780601f10610b4d57610100808354040283529160200191610b78565b820191906000526020600020905b815481529060010190602001808311610b5b57829003601f168201915b505050505090806002018054600181600116156101000203166002900480601f016020809104026020016040519081016040528092919081815260200182805460018160011615610100020316600290048015610c165780601f10610beb57610100808354040283529160200191610c16565b820191906000526020600020905b815481529060010190602001808311610bf957829003601f168201915b505050505090806003015490806004015490806005015490806006018054600181600116156101000203166002900480601f016020809104026020016040519081016040528092919081815260200182805460018160011615610100020316600290048015610cc65780601f10610c9b57610100808354040283529160200191610cc6565b820191906000526020600020905b815481529060010190602001808311610ca957829003601f168201915b505050505090806007018054600181600116156101000203166002900480601f016020809104026020016040519081016040528092919081815260200182805460018160011615610100020316600290048015610d645780601f10610d3957610100808354040283529160200191610d64565b820191906000526020600020905b815481529060010190602001808311610d4757829003601f168201915b5050505050905088565b6000610d7984611827565b90508260008281548110610d8957fe5b90600052602060002090600802016001019080519060200190610dad9291906118ec565b508160008281548110610dbc57fe5b90600052602060002090600802016002019080519060200190610de09291906118ec565b507fc970570d13f16037dca70fecf1fad90e8b1642f2ae44bd35bfb2f5d679f245ff848484604051808481526020018060200180602001838103835285818151815260200191508051906020019080838360005b83811015610e4f578082015181840152602081019050610e34565b50505050905090810190601f168015610e7c5780820380516001836020036101000a031916815260200191505b50838103825284818151815260200191508051906020019080838360005b83811015610eb5578082015181840152602081019050610e9a565b50505050905090810190601f168015610ee25780820380516001836020036101000a031916815260200191505b509550505050505060405180910390a150505050565b600060608060008060006060806000600190506000805490508110156112925760008181548110610f2557fe5b90600052602060002090600802016000015460008281548110610f4457fe5b906000526020600020906008020160010160008381548110610f6257fe5b906000526020600020906008020160020160008481548110610f8057fe5b90600052602060002090600802016003015460008581548110610f9f57fe5b90600052602060002090600802016004015460008681548110610fbe57fe5b90600052602060002090600802016005015460008781548110610fdd57fe5b906000526020600020906008020160060160008881548110610ffb57fe5b9060005260206000209060080201600701868054600181600116156101000203166002900480601f0160208091040260200160405190810160405280929190818152602001828054600181600116156101000203166002900480156110a15780601f10611076576101008083540402835291602001916110a1565b820191906000526020600020905b81548152906001019060200180831161108457829003601f168201915b50505050509650858054600181600116156101000203166002900480601f01602080910402602001604051908101604052809291908181526020018280546001816001161561010002031660029004801561113d5780601f106111125761010080835404028352916020019161113d565b820191906000526020600020905b81548152906001019060200180831161112057829003601f168201915b50505050509550818054600181600116156101000203166002900480601f0160208091040260200160405190810160405280929190818152602001828054600181600116156101000203166002900480156111d95780601f106111ae576101008083540402835291602001916111d9565b820191906000526020600020905b8154815290600101906020018083116111bc57829003601f168201915b50505050509150808054600181600116156101000203166002900480601f0160208091040260200160405190810160405280929190818152602001828054600181600116156101000203166002900480156112755780601f1061124a57610100808354040283529160200191611275565b820191906000526020600020905b81548152906001019060200180831161125857829003601f168201915b505050505090509850985098509850985098509850985050611294565b505b9091929394959697565b60015481565b60006112af82611827565b9050600081815481106112be57fe5b90600052602060002090600802016000808201600090556001820160006112e5919061196c565b6002820160006112f5919061196c565b60038201600090556004820160009055600582016000905560068201600061131d919061196c565b60078201600061132d919061196c565b50507f95b4094671ffaf687b813811774946a8d26cd4c85e8895e0729b5634146e8c58826040518082815260200191505060405180910390a15050565b6000604051806101000160405280600154815260200189815260200188815260200187815260200186815260200185815260200184815260200183815250908060018154018082558091505090600182039060005260206000209060080201600090919290919091506000820151816000015560208201518160010190805190602001906113f99291906119b4565b5060408201518160020190805190602001906114169291906119b4565b50606082015181600301556080820151816004015560a0820151816005015560c08201518160060190805190602001906114519291906119b4565b5060e082015181600701908051906020019061146e9291906119b4565b5050505060016000815480929190600101919050555050505050505050565b6000606080600080600060608060006114a58a611827565b9050600081815481106114b457fe5b906000526020600020906008020160000154600082815481106114d357fe5b9060005260206000209060080201600101600083815481106114f157fe5b90600052602060002090600802016002016000848154811061150f57fe5b9060005260206000209060080201600301546000858154811061152e57fe5b9060005260206000209060080201600401546000868154811061154d57fe5b9060005260206000209060080201600501546000878154811061156c57fe5b90600052602060002090600802016006016000888154811061158a57fe5b9060005260206000209060080201600701868054600181600116156101000203166002900480601f0160208091040260200160405190810160405280929190818152602001828054600181600116156101000203166002900480156116305780601f1061160557610100808354040283529160200191611630565b820191906000526020600020905b81548152906001019060200180831161161357829003601f168201915b50505050509650858054600181600116156101000203166002900480601f0160208091040260200160405190810160405280929190818152602001828054600181600116156101000203166002900480156116cc5780601f106116a1576101008083540402835291602001916116cc565b820191906000526020600020905b8154815290600101906020018083116116af57829003601f168201915b50505050509550818054600181600116156101000203166002900480601f0160208091040260200160405190810160405280929190818152602001828054600181600116156101000203166002900480156117685780601f1061173d57610100808354040283529160200191611768565b820191906000526020600020905b81548152906001019060200180831161174b57829003601f168201915b50505050509150808054600181600116156101000203166002900480601f0160208091040260200160405190810160405280929190818152602001828054600181600116156101000203166002900480156118045780601f106117d957610100808354040283529160200191611804565b820191906000526020600020905b8154815290600101906020018083116117e757829003601f168201915b505050505090509850985098509850985098509850985050919395975091939597565b600080600090505b60008054905081101561187857826000828154811061184a57fe5b906000526020600020906008020160000154141561186b57809150506118e7565b808060010191505061182f565b506040517f08c379a000000000000000000000000000000000000000000000000000000000815260040180806020018281038252601c8152602001807f4c616e64205469746c6520494420646f6573206e6f742065786973740000000081525060200191505060405180910390fd5b919050565b828054600181600116156101000203166002900490600052602060002090601f016020900481019282601f1061192d57805160ff191683800117855561195b565b8280016001018555821561195b579182015b8281111561195a57825182559160200191906001019061193f565b5b5090506119689190611a34565b5090565b50805460018160011615610100020316600290046000825580601f1061199257506119b1565b601f0160209004906000526020600020908101906119b09190611a34565b5b50565b828054600181600116156101000203166002900490600052602060002090601f016020900481019282601f106119f557805160ff1916838001178555611a23565b82800160010185558215611a23579182015b82811115611a22578251825591602001919060010190611a07565b5b509050611a309190611a34565b5090565b611a5691905b80821115611a52576000816000905550600101611a3a565b5090565b9056fea165627a7a723058206eb3670dc882d5da50102159dd2b6989b04145984a522cb7c8b15053e1481c3d0029",
  "source": "pragma solidity ^0.5.0;\n\ncontract RuralContract {\n\n   //Defining the model of the LandTitle\n   struct LandTitle {\n       uint id;\n       string firstName;\n       string lastName;\n       int256 geoLatLand;\n       int256 geoLongLand;\n       uint256 areaLand;\n       string city;\n       string villageName;\n   }\n\n   //Define variables of the contract\n   LandTitle[] public landTitles;\n   uint public nextId = 1;\n\n    \n    //Declare Constructor\n    constructor() public {\n    }\n\n    //Declare List of the Functions of the contract\n\n    /*\n    Event LandTitleEvent to help use the logging facility to create a new landTitle\n    */\n    event LandTitleRegistrationEvent(uint id, string firstName,\n                        string lastName, int256 geoLatLand,\n                        int256 geoLongLand, uint256 areaLand,\n                        string city, string villageName\n    );\n    \n    /*\n    Event DeleteLandTitleEvent to help use the logging facility to delete a landTitle\n    */\n    event DeleteLandTitleEvent(uint id);\n\n    /*\n    Event UpdateLandTitleEvent to help use the logging facility to update a landTitle\n    */\n    event UpdatedLandTitleOwnerEvent(uint id, string firstName,\n                               string lastName\n\n    );\n    \n    /*\n    Function registerLandTitle\n    @Param firstName,\n    @Param lastName,\n    @Param geoLatLand,\n    @Param geoLongLand,\n    @Param areaLand, \n    @Param city,\n    @Param villageName\n    */\n\n    //Register your land\n    function registerLandTitle(\n        string memory firstName,\n        string memory lastName,\n        int256  geoLatLand,\n        int256  geoLongLand,\n        uint256 areaLand, \n        string memory city,\n        string memory villageName\n        ) public { \n            landTitles.push(LandTitle(nextId,firstName,lastName,geoLatLand,geoLongLand,areaLand,city,villageName));\n            nextId++;\n    } \n\n    /*\n    Function ModifyLandTitleOwner\n    @Param id\n    @Param newFirstName\n    @Param newLastName\n    */\n    function UpdatedLandTitleOwner(uint id, string memory newFirstName, string memory newLastName) public {\n        uint i = search(id);\n        landTitles[i].firstName = newFirstName;\n        landTitles[i].lastName = newLastName;\n        \n        emit UpdatedLandTitleOwnerEvent(id, newFirstName, newLastName);\n    }\n\n    /*\n    Function DeleteLandTitle to delete a land title\n    */\n    function DeleteLandTitle(uint id) public {\n        uint i = search(id);\n        delete landTitles[i];\n        \n        emit DeleteLandTitleEvent(id);\n\n    }\n\n     //Retrieve a specific Land Title saved\n    function getLandTitle(uint id) view public returns(uint, string memory,\n                                    string memory, int256,\n                                    int256, uint256,string memory, string memory ){\n        uint i = search(id);\n        return (landTitles[i].id , landTitles[i].firstName, landTitles[i].lastName,\n                landTitles[i].geoLatLand, landTitles[i].geoLongLand, landTitles[i].areaLand,\n                landTitles[i].city, landTitles[i].villageName );\n    }\n\n    function search(uint id) view internal returns(uint) {\n        for(uint i=0; i < landTitles.length; i++) {\n            if(landTitles[i].id == id) {\n                return i;\n            }\n        }\n        revert(\"Land Title ID does not exist\");\n    }\n\n   \n\n    //Function to return all LandTitles Saved\n    function getAllOwners() public view returns (uint, string memory,\n                                    string memory, int256, int256, uint256,\n                                    string memory, string memory) {\n        \n        for(uint i=1; i < landTitles.length; i++) {\n            return (landTitles[i].id , landTitles[i].firstName, landTitles[i].lastName,\n                landTitles[i].geoLatLand, landTitles[i].geoLongLand, landTitles[i].areaLand,\n                landTitles[i].city, landTitles[i].villageName );    \n        }\n    }\n\n}",
  "sourcePath": "/home/yankees/Projects/BLOCKCHAIN_LAND_REGISTRY/rural-blockchain/contracts/RuralContract.sol",
  "compiler": {
    "name": "solc",
    "version": "0.5.8+commit.23d335f2.Emscripten.clang"
  },
  "schemaVersion": "3.0.10",
  "updatedAt": "2019-06-21T16:59:02.304Z",
  "devdoc": {
    "methods": {}
  },
  "userdoc": {
    "methods": {}
  }
}